{
  "contractName": "SafeRemotePurchase",
  "abi": [
    {
      "inputs": [
        {
          "internalType": "uint256",
          "name": "_rate",
          "type": "uint256"
        },
        {
          "internalType": "address payable",
          "name": "_seller",
          "type": "address"
        },
        {
          "internalType": "bytes32",
          "name": "_key",
          "type": "bytes32"
        },
        {
          "internalType": "string",
          "name": "_description",
          "type": "string"
        },
        {
          "internalType": "string",
          "name": "_ipfxImageHash",
          "type": "string"
        }
      ],
      "stateMutability": "payable",
      "type": "constructor"
    },
    {
      "anonymous": false,
      "inputs": [
        {
          "indexed": true,
          "internalType": "address",
          "name": "sender",
          "type": "address"
        },
        {
          "indexed": false,
          "internalType": "uint256",
          "name": "amount",
          "type": "uint256"
        },
        {
          "indexed": false,
          "internalType": "bytes32",
          "name": "key",
          "type": "bytes32"
        }
      ],
      "name": "LogCanceledBySeller",
      "type": "event"
    },
    {
      "anonymous": false,
      "inputs": [
        {
          "indexed": true,
          "internalType": "address",
          "name": "sender",
          "type": "address"
        },
        {
          "indexed": false,
          "internalType": "uint256",
          "name": "amount",
          "type": "uint256"
        },
        {
          "indexed": false,
          "internalType": "bytes32",
          "name": "key",
          "type": "bytes32"
        }
      ],
      "name": "LogPurchaseConfirmed",
      "type": "event"
    },
    {
      "anonymous": false,
      "inputs": [
        {
          "indexed": true,
          "internalType": "address",
          "name": "sender",
          "type": "address"
        },
        {
          "indexed": false,
          "internalType": "uint256",
          "name": "amount",
          "type": "uint256"
        },
        {
          "indexed": false,
          "internalType": "bytes32",
          "name": "key",
          "type": "bytes32"
        }
      ],
      "name": "LogReceivedByBuyer",
      "type": "event"
    },
    {
      "anonymous": false,
      "inputs": [
        {
          "indexed": true,
          "internalType": "address",
          "name": "sender",
          "type": "address"
        },
        {
          "indexed": false,
          "internalType": "uint256",
          "name": "amount",
          "type": "uint256"
        },
        {
          "indexed": false,
          "internalType": "bytes32",
          "name": "key",
          "type": "bytes32"
        }
      ],
      "name": "LogWithdrawByOwner",
      "type": "event"
    },
    {
      "anonymous": false,
      "inputs": [
        {
          "indexed": true,
          "internalType": "address",
          "name": "sender",
          "type": "address"
        },
        {
          "indexed": false,
          "internalType": "uint256",
          "name": "amount",
          "type": "uint256"
        },
        {
          "indexed": false,
          "internalType": "bytes32",
          "name": "key",
          "type": "bytes32"
        }
      ],
      "name": "LogWithdrawBySeller",
      "type": "event"
    },
    {
      "anonymous": false,
      "inputs": [
        {
          "indexed": true,
          "internalType": "address",
          "name": "previousOwner",
          "type": "address"
        },
        {
          "indexed": true,
          "internalType": "address",
          "name": "newOwner",
          "type": "address"
        }
      ],
      "name": "OwnershipTransferred",
      "type": "event"
    },
    {
      "stateMutability": "nonpayable",
      "type": "fallback"
    },
    {
      "inputs": [],
      "name": "buyer",
      "outputs": [
        {
          "internalType": "address payable",
          "name": "",
          "type": "address"
        }
      ],
      "stateMutability": "view",
      "type": "function"
    },
    {
      "inputs": [],
      "name": "description",
      "outputs": [
        {
          "internalType": "string",
          "name": "",
          "type": "string"
        }
      ],
      "stateMutability": "view",
      "type": "function"
    },
    {
      "inputs": [],
      "name": "ipfsImageHash",
      "outputs": [
        {
          "internalType": "string",
          "name": "",
          "type": "string"
        }
      ],
      "stateMutability": "view",
      "type": "function"
    },
    {
      "inputs": [],
      "name": "isOwner",
      "outputs": [
        {
          "internalType": "bool",
          "name": "",
          "type": "bool"
        }
      ],
      "stateMutability": "view",
      "type": "function"
    },
    {
      "inputs": [],
      "name": "key",
      "outputs": [
        {
          "internalType": "bytes32",
          "name": "",
          "type": "bytes32"
        }
      ],
      "stateMutability": "view",
      "type": "function"
    },
    {
      "inputs": [],
      "name": "owner",
      "outputs": [
        {
          "internalType": "address payable",
          "name": "",
          "type": "address"
        }
      ],
      "stateMutability": "view",
      "type": "function"
    },
    {
      "inputs": [],
      "name": "price",
      "outputs": [
        {
          "internalType": "uint256",
          "name": "",
          "type": "uint256"
        }
      ],
      "stateMutability": "view",
      "type": "function"
    },
    {
      "inputs": [],
      "name": "seller",
      "outputs": [
        {
          "internalType": "address payable",
          "name": "",
          "type": "address"
        }
      ],
      "stateMutability": "view",
      "type": "function"
    },
    {
      "inputs": [],
      "name": "state",
      "outputs": [
        {
          "internalType": "enum SafeRemotePurchase.State",
          "name": "",
          "type": "uint8"
        }
      ],
      "stateMutability": "view",
      "type": "function"
    },
    {
      "inputs": [
        {
          "internalType": "address payable",
          "name": "newOwner",
          "type": "address"
        }
      ],
      "name": "transferOwnership",
      "outputs": [],
      "stateMutability": "nonpayable",
      "type": "function"
    },
    {
      "inputs": [],
      "name": "buyerPurchase",
      "outputs": [
        {
          "internalType": "bool",
          "name": "result",
          "type": "bool"
        }
      ],
      "stateMutability": "payable",
      "type": "function"
    },
    {
      "inputs": [],
      "name": "buyerConfirmReceived",
      "outputs": [
        {
          "internalType": "bool",
          "name": "result",
          "type": "bool"
        }
      ],
      "stateMutability": "nonpayable",
      "type": "function"
    },
    {
      "inputs": [],
      "name": "abortBySeller",
      "outputs": [
        {
          "internalType": "bool",
          "name": "result",
          "type": "bool"
        }
      ],
      "stateMutability": "nonpayable",
      "type": "function"
    },
    {
      "inputs": [],
      "name": "withdrawBySeller",
      "outputs": [
        {
          "internalType": "bool",
          "name": "result",
          "type": "bool"
        }
      ],
      "stateMutability": "nonpayable",
      "type": "function"
    },
    {
      "inputs": [],
      "name": "withdrawByOwner",
      "outputs": [
        {
          "internalType": "bool",
          "name": "result",
          "type": "bool"
        }
      ],
      "stateMutability": "nonpayable",
      "type": "function"
    },
    {
      "inputs": [],
      "name": "commissionRate",
      "outputs": [
        {
          "internalType": "uint256",
          "name": "commission",
          "type": "uint256"
        }
      ],
      "stateMutability": "view",
      "type": "function"
    },
    {
      "inputs": [],
      "name": "balanceOf",
      "outputs": [
        {
          "internalType": "uint256",
          "name": "",
          "type": "uint256"
        }
      ],
      "stateMutability": "view",
      "type": "function"
    }
  ],
  "bytecode": "0x6080604052604051620016b6380380620016b6833981810160405260a08110156200002957600080fd5b8151602083015160408085015160608601805192519496939591949391820192846401000000008211156200005d57600080fd5b9083019060208201858111156200007357600080fd5b82516401000000008111828201881017156200008e57600080fd5b82525081516020918201929091019080838360005b83811015620000bd578181015183820152602001620000a3565b50505050905090810190601f168015620000eb5780820380516001836020036101000a031916815260200191505b50604052602001805160405193929190846401000000008211156200010f57600080fd5b9083019060208201858111156200012557600080fd5b82516401000000008111828201881017156200014057600080fd5b82525081516020918201929091019080838360005b838110156200016f57818101518382015260200162000155565b50505050905090810190601f1680156200019d5780820380516001836020036101000a031916815260200191505b506040525050506000620001b66200052060201b60201c565b600080546001600160a01b0319166001600160a01b0383169081178255604051929350917f8be0079c531659141344cd1fd0a4f28419497f9722a3daafe3b4186f6b6457e0908290a350826200026d57604080517f08c379a000000000000000000000000000000000000000000000000000000000815260206004820152601160248201527f4b65792063616e6e6f7420626520307830000000000000000000000000000000604482015290519081900360640190fd5b6000825111620002de57604080517f08c379a000000000000000000000000000000000000000000000000000000000815260206004820152601a60248201527f4465736372697074696f6e2063616e277420626520656d707479000000000000604482015290519081900360640190fd5b600085116200034e57604080517f08c379a000000000000000000000000000000000000000000000000000000000815260206004820181905260248201527f4d75737420737065636966792074686520636f6d6d697373696f6e2072617465604482015290519081900360640190fd5b6001600160a01b038416620003c457604080517f08c379a000000000000000000000000000000000000000000000000000000000815260206004820152601e60248201527f5468652073656c6c657220697320746865207a65726f20616464726573730000604482015290519081900360640190fd5b6001859055600280546001600160a01b0319166001600160a01b03861617905560058390558051620003fe906007906020840190620005a8565b50815162000414906006906020850190620005a8565b50620004306002346200052560201b62000e771790919060201c565b6004819055620004a157604080517f08c379a000000000000000000000000000000000000000000000000000000000815260206004820152601260248201527f4d75737420737065636966792070726963650000000000000000000000000000604482015290519081900360640190fd5b34600454600202146200051557604080517f08c379a000000000000000000000000000000000000000000000000000000000815260206004820152601460248201527f50726963652068617320746f206265206576656e000000000000000000000000604482015290519081900360640190fd5b50505050506200064a565b335b90565b60008082116200059657604080517f08c379a000000000000000000000000000000000000000000000000000000000815260206004820152601a60248201527f536166654d6174683a206469766973696f6e206279207a65726f000000000000604482015290519081900360640190fd5b818381620005a057fe5b049392505050565b828054600181600116156101000203166002900490600052602060002090601f016020900481019282601f10620005eb57805160ff19168380011785556200061b565b828001600101855582156200061b579182015b828111156200061b578251825591602001919060010190620005fe565b50620006299291506200062d565b5090565b6200052291905b8082111562000629576000815560010162000634565b61105c806200065a6000396000f3fe6080604052600436106100fe5760003560e01c8063722713f711610095578063a035b1fe11610064578063a035b1fe146102ff578063c19d93fb14610314578063caa1acca1461034d578063f2fde38b14610362578063ff0a921014610397576100fe565b8063722713f7146102ab5780637284e416146102c05780638da5cb5b146102d55780638f32d59b146102ea576100fe565b80633943380c116100d15780633943380c1461024557806342730a671461026c5780635ea1d6f8146102815780637150d8ae14610296576100fe565b806305f2327e1461014c57806308551a53146101755780632b6bd172146101a65780633440543a14610230575b34801561010a57600080fd5b506040805162461bcd60e51b8152602060048201526011602482015270139bc8115d1a195c88195e18d95c1d1959607a1b604482015290519081900360640190fd5b34801561015857600080fd5b5061016161039f565b604080519115158252519081900360200190f35b34801561018157600080fd5b5061018a61059c565b604080516001600160a01b039092168252519081900360200190f35b3480156101b257600080fd5b506101bb6105ab565b6040805160208082528351818301528351919283929083019185019080838360005b838110156101f55781810151838201526020016101dd565b50505050905090810190601f1680156102225780820380516001836020036101000a031916815260200191505b509250505060405180910390f35b34801561023c57600080fd5b50610161610639565b34801561025157600080fd5b5061025a610787565b60408051918252519081900360200190f35b34801561027857600080fd5b5061016161078d565b34801561028d57600080fd5b5061025a610a14565b3480156102a257600080fd5b5061018a610a87565b3480156102b757600080fd5b5061025a610a96565b3480156102cc57600080fd5b506101bb610a9b565b3480156102e157600080fd5b5061018a610af6565b3480156102f657600080fd5b50610161610b05565b34801561030b57600080fd5b5061025a610b29565b34801561032057600080fd5b50610329610b2f565b6040518082600681111561033957fe5b60ff16815260200191505060405180910390f35b34801561035957600080fd5b50610161610b38565b34801561036e57600080fd5b506103956004803603602081101561038557600080fd5b50356001600160a01b0316610c8d565b005b610161610cf2565b60006103a9610b05565b6103fa576040805162461bcd60e51b815260206004820181905260248201527f4f776e61626c653a2063616c6c6572206973206e6f7420746865206f776e6572604482015290519081900360640190fd5b600360085460ff16600681111561040d57fe5b14806104295750600460085460ff16600681111561042757fe5b145b80610475576040805162461bcd60e51b815260206004820152601760248201527621b7b73234ba34b7b71034b9903737ba103b30b634b21760491b604482015290519081900360640190fd5b600460085460ff16600681111561048857fe5b1415610539576000610498610a96565b6008805491925060069160ff19166001835b02179055506104b7610af6565b6001600160a01b03166108fc829081150290604051600060405180830381858888f193505050501580156104ef573d6000803e3d6000fd5b50600554604080518381526020810192909252805133927f2129bd15197623093be41266e086becfae397746bc7db95596ca4a1f36ef79c692908290030190a26001925050610598565b600360085460ff16600681111561054c57fe5b141561059357600061057d612710610571600154600454610e1590919063ffffffff16565b9063ffffffff610e7716565b6008805491925060059160ff19166001836104aa565b600091505b5090565b6002546001600160a01b031681565b6007805460408051602060026001851615610100026000190190941693909304601f810184900484028201840190925281815292918301828280156106315780601f1061060657610100808354040283529160200191610631565b820191906000526020600020905b81548152906001019060200180831161061457829003601f168201915b505050505081565b6003546000906001600160a01b0316331461069b576040805162461bcd60e51b815260206004820152601960248201527f4f6e6c792062757965722063616e2063616c6c20746869732e00000000000000604482015290519081900360640190fd5b60018060085460ff1660068111156106af57fe5b146106f2576040805162461bcd60e51b815260206004820152600e60248201526d24b73b30b634b21039ba30ba329760911b604482015290519081900360640190fd5b6008805460ff19166003908117909155546004546040516001600160a01b03909216916108fc82150291906000818181858888f1935050505015801561073c573d6000803e3d6000fd5b50600454600554604080519283526020830191909152805133927fc5d165c13c7cf52e8c1d83e8360217d28e037f972dbe510fe426aab4f816feaf92908290030190a2600191505090565b60055481565b6002546000906001600160a01b031633146107ef576040805162461bcd60e51b815260206004820152601a60248201527f4f6e6c792073656c6c65722063616e2063616c6c20746869732e000000000000604482015290519081900360640190fd5b600360085460ff16600681111561080257fe5b148061081e5750600560085460ff16600681111561081c57fe5b145b8061086a576040805162461bcd60e51b815260206004820152601760248201527621b7b73234ba34b7b71034b9903737ba103b30b634b21760491b604482015290519081900360640190fd5b600560085460ff16600681111561087d57fe5b141561091f57600061088d610a96565b6008805460ff191660061790556002546040519192506001600160a01b0316906108fc8315029083906000818181858888f193505050501580156108d5573d6000803e3d6000fd5b50600554604080518381526020810192909252805133927fd94337f1569bbb41c44db2961d128ddcb40da33ffbc64d4cc350e05aee78f36c92908290030190a26001925050610598565b600360085460ff16600681111561093257fe5b1415610593576000610957612710610571600154600454610e1590919063ffffffff16565b90506000610981826109756003600454610e1590919063ffffffff16565b9063ffffffff610ede16565b6008805460ff191660041790556002546040519192506001600160a01b0316906108fc8315029083906000818181858888f193505050501580156109c9573d6000803e3d6000fd5b50600554604080518381526020810192909252805133927fd94337f1569bbb41c44db2961d128ddcb40da33ffbc64d4cc350e05aee78f36c92908290030190a2600193505050610598565b6000610a1e610b05565b80610a3357506002546001600160a01b031633145b80610a7f576040805162461bcd60e51b815260206004820152601760248201527621b7b73234ba34b7b71034b9903737ba103b30b634b21760491b604482015290519081900360640190fd5b505060015490565b6003546001600160a01b031681565b303190565b6006805460408051602060026001851615610100026000190190941693909304601f810184900484028201840190925281815292918301828280156106315780601f1061060657610100808354040283529160200191610631565b6000546001600160a01b031690565b600080546001600160a01b0316610b1a610f3b565b6001600160a01b031614905090565b60045481565b60085460ff1681565b6002546000906001600160a01b03163314610b9a576040805162461bcd60e51b815260206004820152601a60248201527f4f6e6c792073656c6c65722063616e2063616c6c20746869732e000000000000604482015290519081900360640190fd5b60008060085460ff166006811115610bae57fe5b14610bf1576040805162461bcd60e51b815260206004820152600e60248201526d24b73b30b634b21039ba30ba329760911b604482015290519081900360640190fd5b6000610bfb610a96565b6008805460ff19166002908117909155546040519192506001600160a01b0316906108fc8315029083906000818181858888f19350505050158015610c44573d6000803e3d6000fd5b50600554604080518381526020810192909252805133927fe552887a088089a580f4fe85522ef5af09776f4e4b5019499cdb80013af9ef7792908290030190a260019250505090565b610c95610b05565b610ce6576040805162461bcd60e51b815260206004820181905260248201527f4f776e61626c653a2063616c6c6572206973206e6f7420746865206f776e6572604482015290519081900360640190fd5b610cef81610f3f565b50565b6000808060085460ff166006811115610d0757fe5b14610d4a576040805162461bcd60e51b815260206004820152600e60248201526d24b73b30b634b21039ba30ba329760911b604482015290519081900360640190fd5b600454610d5e90600263ffffffff610e1516565b341480610dac576040805162461bcd60e51b815260206004820152601760248201527621b7b73234ba34b7b71034b9903737ba103b30b634b21760491b604482015290519081900360640190fd5b600380546001600160a01b031916339081179091556008805460ff1916600117905560055460408051348152602081019290925280517f85da4895962a0b3be198f8a66cacfdc31ce56bc1b298a9530021e876d01f505d9281900390910190a260019250505090565b600082610e2457506000610e71565b82820282848281610e3157fe5b0414610e6e5760405162461bcd60e51b81526004018080602001828103825260218152602001806110066021913960400191505060405180910390fd5b90505b92915050565b6000808211610ecd576040805162461bcd60e51b815260206004820152601a60248201527f536166654d6174683a206469766973696f6e206279207a65726f000000000000604482015290519081900360640190fd5b818381610ed657fe5b049392505050565b600082821115610f35576040805162461bcd60e51b815260206004820152601e60248201527f536166654d6174683a207375627472616374696f6e206f766572666c6f770000604482015290519081900360640190fd5b50900390565b3390565b6001600160a01b038116610f845760405162461bcd60e51b8152600401808060200182810382526026815260200180610fe06026913960400191505060405180910390fd5b600080546040516001600160a01b03808516939216917f8be0079c531659141344cd1fd0a4f28419497f9722a3daafe3b4186f6b6457e091a3600080546001600160a01b0319166001600160a01b039290921691909117905556fe4f776e61626c653a206e6577206f776e657220697320746865207a65726f2061646472657373536166654d6174683a206d756c7469706c69636174696f6e206f766572666c6f77a2646970667358221220088c7969ac704ce40d98bec0fe45693a91cd900f4fc0fa832e56e22839d404d964736f6c63430006000033",
  "source": "/**\nbased on\n1. https://solidity.readthedocs.io/en/latest/solidity-by-example.html#safe-remote-purchase\n*/\n\npragma solidity ^0.6.0;\n\nimport \"@openzeppelin/contracts/math/SafeMath.sol\";\n// import \"https://github.com/OpenZeppelin/openzeppelin-contracts/blob/master/contracts/math/SafeMath.sol\"; // for Remix\nimport \"./Ownable.sol\";\n\ncontract SafeRemotePurchase is Ownable {\n    using SafeMath for uint256;\n\n    uint256 private _commissionRate; // for example, 350 ==>  (350/100) = 3.5%\n\n    address payable public seller;\n    address payable public buyer;\n    uint256 public price;\n    bytes32 public key; // unique string identifier\n    string public description;\n    string public ipfsImageHash;\n\n    enum State {\n        Created,\n        Locked,\n        Canceled,\n        ItemReceived,\n        SellerPaid,\n        OwnerPaid,\n        Completed\n    }\n    State public state;\n\n    // Contract created by the seller\n    // Ensure that `msg.value` is an even number.\n    // Division will truncate if it is an odd number.\n    // Check via multiplication that it wasn't an odd number.\n    constructor(\n        uint256 _rate,\n        address payable _seller,\n        bytes32 _key,\n        string memory _description,\n        string memory _ipfxImageHash\n    ) public payable {\n        require(_key != 0x0, \"Key cannot be 0x0\");\n        require(bytes(_description).length > 0, \"Description can't be empty\");\n        require(_rate > 0, \"Must specify the commission rate\");\n        require(_seller != address(0), \"The seller is the zero address\");\n\n        _commissionRate = _rate;\n        seller = _seller;\n        key = _key;\n        ipfsImageHash = _ipfxImageHash;\n        description = _description;\n        price = msg.value.div(2);\n\n        require(price > 0, \"Must specify price\");\n        require((price * 2) == msg.value, \"Price has to be even\");\n    }\n\n    modifier condition(bool _condition) {\n        require(_condition, \"Condition is not valid.\");\n        _;\n    }\n\n    modifier onlyBuyer() {\n        require(msg.sender == buyer, \"Only buyer can call this.\");\n        _;\n    }\n\n    modifier onlySeller() {\n        require(msg.sender == seller, \"Only seller can call this.\");\n        _;\n    }\n\n    modifier inState(State _state) {\n        require(state == _state, \"Invalid state.\");\n        _;\n    }\n\n    event LogCanceledBySeller(\n        address indexed sender,\n        uint256 amount,\n        bytes32 key\n    );\n    event LogPurchaseConfirmed(\n        address indexed sender,\n        uint256 amount,\n        bytes32 key\n    );\n    event LogReceivedByBuyer(\n        address indexed sender,\n        uint256 amount,\n        bytes32 key\n    );\n    event LogWithdrawBySeller(\n        address indexed sender,\n        uint256 amount,\n        bytes32 key\n    );\n    event LogWithdrawByOwner(\n        address indexed sender,\n        uint256 amount,\n        bytes32 key\n    );\n\n    // Confirm the purchase as buyer.\n    // Transaction has to include `2 * value` ether.\n    // The ether will be locked until buyerConfirmReceived is called\n    function buyerPurchase()\n        external\n        payable\n        inState(State.Created)\n        condition(msg.value == price.mul(2))\n        returns (bool result)\n    {\n        buyer = msg.sender;\n        state = State.Locked;\n        emit LogPurchaseConfirmed(msg.sender, msg.value, key);\n\n        return true;\n    }\n\n    // Confirm that the buyer received the item from the seller.\n    // The buyer will receive the locked ether in the amount of the price.\n    function buyerConfirmReceived()\n        external\n        onlyBuyer\n        inState(State.Locked)\n        returns (bool result)\n    {\n        state = State.ItemReceived;\n        buyer.transfer(price);\n        emit LogReceivedByBuyer(msg.sender, price, key);\n\n        return true;\n    }\n\n    // Abort the purchase and reclaim the ether.\n    // Can only be called by the seller before\n    // the contract is locked.\n    function abortBySeller()\n        external\n        onlySeller\n        inState(State.Created)\n        returns (bool result)\n    {\n        uint256 amount = balanceOf();\n        state = State.Canceled;\n\n        // We use transfer here directly. It is\n        // reentrancy-safe, because it is the\n        // last call in this function and we\n        // already changed the state.\n        seller.transfer(amount);\n        emit LogCanceledBySeller(msg.sender, amount, key);\n\n        return true;\n    }\n\n    function withdrawBySeller()\n        external\n        onlySeller\n        condition(state == State.ItemReceived || state == State.OwnerPaid)\n        returns (bool result)\n    {\n        if (state == State.OwnerPaid) {\n            uint256 amount = balanceOf();\n\n            state = State.Completed;\n            seller.transfer(amount);\n\n            emit LogWithdrawBySeller(msg.sender, amount, key);\n            return true;\n        } else if (state == State.ItemReceived) {\n            // calculate commission part\n            uint256 commission = (price.mul(_commissionRate)).div(10000);\n\n            // subtracts commission part: 3.5% ==> 350 /100\n            uint256 amount = (price.mul(3)).sub(commission);\n\n            state = State.SellerPaid;\n            seller.transfer(amount);\n            emit LogWithdrawBySeller(msg.sender, amount, key);\n\n            return true;\n        } else {\n            return false;\n        }\n    }\n\n    function withdrawByOwner()\n        external\n        onlyOwner\n        condition(state == State.ItemReceived || state == State.SellerPaid)\n        returns (bool result)\n    {\n        if (state == State.SellerPaid) {\n            uint256 amount = balanceOf();\n\n            state = State.Completed;\n            owner().transfer(amount);\n\n            emit LogWithdrawByOwner(msg.sender, amount, key);\n\n            return true;\n        } else if (state == State.ItemReceived) {\n            // calculate commission part: 3.5% ==> 350 /100\n            uint256 commission = (price.mul(_commissionRate)).div(10000);\n\n            state = State.OwnerPaid;\n            owner().transfer(commission);\n\n            emit LogWithdrawByOwner(msg.sender, commission, key);\n            return true;\n        } else {\n            return false;\n        }\n    }\n\n    // only owner (==deployer) and seller can see it\n    function commissionRate()\n        external\n        view\n        condition(isOwner() || msg.sender == seller)\n        returns (uint256 commission)\n    {\n        return _commissionRate;\n    }\n\n    // Get balance of the contract\n    function balanceOf() public view returns (uint256) {\n        return address(this).balance;\n    }\n\n    // Prevent someone sending ether to the contract\n    // It will cause an exception,\n    // because the fallback function does not have the 'payable'\n    // modifier.\n    fallback() external {\n        revert(\"No Ether excepted\");\n    }\n}\n",
  "sourcePath": "/Users/thuannp/Projects/Blockchain/e-commerce-dapp/contracts/SafeRemotePurchase.sol",
  "compiler": {
    "name": "solc",
    "version": "0.6.0+commit.26b70077.Emscripten.clang"
  },
  "schemaVersion": "3.4.3",
  "updatedAt": "2021-09-08T11:58:06.981Z",
  "devdoc": {
    "methods": {}
  },
  "userdoc": {
    "methods": {
      "isOwner()": {
        "notice": "Returns true if the caller is the current owner."
      },
      "owner()": {
        "notice": "Returns the address of the current owner."
      },
      "transferOwnership(address)": {
        "notice": "Transfers ownership of the contract to a new account (`newOwner`). Can only be called by the current owner."
      }
    }
  }
}